{
  "contractName": "Login",
  "abi": [
    {
      "constant": false,
      "inputs": [
        {
          "name": "challenge",
          "type": "string"
        }
      ],
      "name": "login",
      "outputs": [],
      "payable": false,
      "stateMutability": "nonpayable",
      "type": "function"
    },
    {
      "anonymous": false,
      "inputs": [
        {
          "indexed": false,
          "name": "sender",
          "type": "address"
        },
        {
          "indexed": false,
          "name": "challenge",
          "type": "string"
        }
      ],
      "name": "LoginAttempt",
      "type": "event"
    }
  ],
  "bytecode": "0x6060604052341561000f57600080fd5b6101a28061001e6000396000f300606060405260043610610041576000357c0100000000000000000000000000000000000000000000000000000000900463ffffffff1680633a7d280c14610046575b600080fd5b341561005157600080fd5b6100a1600480803590602001908201803590602001908080601f016020809104026020016040519081016040528093929190818152602001838380828437820191505050505050919050506100a3565b005b7fdeb017956c894eba079e6a630f5cfec256256dc05616ad89f1eb825abef459633382604051808373ffffffffffffffffffffffffffffffffffffffff1673ffffffffffffffffffffffffffffffffffffffff16815260200180602001828103825283818151815260200191508051906020019080838360005b8381101561013857808201518184015260208101905061011d565b50505050905090810190601f1680156101655780820380516001836020036101000a031916815260200191505b50935050505060405180910390a1505600a165627a7a723058204475b0be53de6f1c56faac2bb8bc7b66f4f8e7ca08f3c9bb9777f33c0c6cf4300029",
  "source": "pragma solidity ^0.4.17;\n\ncontract Login {\n\t\n\tevent LoginAttempt(address sender, string challenge);\n\n\tfunction login(string challenge) {\n\t\tLoginAttempt(msg.sender, challenge);\n\t}\n\n}\n",
  "sourcePath": "/Users/adam/Documents/cs512finalproject/solidity/contracts/Login.sol",
  "compiler": {
    "name": "solc",
    "version": "0.4.18+commit.9cf6e910.Emscripten.clang"
  },
  "schemaVersion": "1.0.1",
  "updatedAt": "2017-12-10T23:53:09.936Z"
}