{
  "contractName": "Store",
  "abi": [
    {
      "constant": true,
      "inputs": [],
      "name": "ownerId",
      "outputs": [
        {
          "name": "",
          "type": "address"
        }
      ],
      "payable": false,
      "stateMutability": "view",
      "type": "function"
    },
    {
      "constant": true,
      "inputs": [],
      "name": "getBalance",
      "outputs": [
        {
          "name": "_balance",
          "type": "uint256"
        }
      ],
      "payable": false,
      "stateMutability": "view",
      "type": "function"
    },
    {
      "constant": false,
      "inputs": [
        {
          "name": "_address",
          "type": "address"
        },
        {
          "name": "_email",
          "type": "bytes32"
        },
        {
          "name": "_name",
          "type": "bytes32"
        },
        {
          "name": "_balance",
          "type": "uint256"
        }
      ],
      "name": "newUser",
      "outputs": [
        {
          "name": "success",
          "type": "bool"
        }
      ],
      "payable": false,
      "stateMutability": "nonpayable",
      "type": "function"
    },
    {
      "constant": true,
      "inputs": [],
      "name": "storeName",
      "outputs": [
        {
          "name": "",
          "type": "bytes32"
        }
      ],
      "payable": false,
      "stateMutability": "view",
      "type": "function"
    },
    {
      "constant": false,
      "inputs": [
        {
          "name": "id",
          "type": "uint256"
        },
        {
          "name": "bidPrice",
          "type": "uint256"
        }
      ],
      "name": "placeBid",
      "outputs": [
        {
          "name": "success",
          "type": "bool"
        }
      ],
      "payable": true,
      "stateMutability": "payable",
      "type": "function"
    },
    {
      "constant": true,
      "inputs": [],
      "name": "yo",
      "outputs": [
        {
          "name": "hello",
          "type": "bool"
        }
      ],
      "payable": false,
      "stateMutability": "view",
      "type": "function"
    },
    {
      "constant": false,
      "inputs": [
        {
          "name": "id",
          "type": "uint256"
        },
        {
          "name": "name",
          "type": "bytes32"
        },
        {
          "name": "description",
          "type": "bytes32"
        },
        {
          "name": "price",
          "type": "uint256"
        }
      ],
      "name": "newProduct",
      "outputs": [
        {
          "name": "success",
          "type": "bool"
        }
      ],
      "payable": false,
      "stateMutability": "nonpayable",
      "type": "function"
    },
    {
      "constant": false,
      "inputs": [
        {
          "name": "newOwnerId",
          "type": "address"
        }
      ],
      "name": "newOwner",
      "outputs": [],
      "payable": false,
      "stateMutability": "nonpayable",
      "type": "function"
    },
    {
      "constant": false,
      "inputs": [
        {
          "name": "productId",
          "type": "uint256"
        },
        {
          "name": "bidPrice",
          "type": "uint256"
        }
      ],
      "name": "endBid",
      "outputs": [
        {
          "name": "success",
          "type": "bool"
        }
      ],
      "payable": true,
      "stateMutability": "payable",
      "type": "function"
    },
    {
      "constant": false,
      "inputs": [
        {
          "name": "user",
          "type": "address"
        },
        {
          "name": "productId",
          "type": "uint256"
        },
        {
          "name": "winnerAdr",
          "type": "address"
        },
        {
          "name": "bidPrice",
          "type": "uint256"
        }
      ],
      "name": "generateBidId",
      "outputs": [
        {
          "name": "bidId",
          "type": "bytes32"
        },
        {
          "name": "bidIndex",
          "type": "uint256"
        }
      ],
      "payable": false,
      "stateMutability": "nonpayable",
      "type": "function"
    },
    {
      "constant": false,
      "inputs": [
        {
          "name": "userAddress",
          "type": "address"
        },
        {
          "name": "productId",
          "type": "uint256"
        }
      ],
      "name": "convert",
      "outputs": [
        {
          "name": "uAddress256",
          "type": "uint256"
        }
      ],
      "payable": false,
      "stateMutability": "nonpayable",
      "type": "function"
    },
    {
      "constant": false,
      "inputs": [
        {
          "name": "id",
          "type": "uint256"
        }
      ],
      "name": "deleteProduct",
      "outputs": [
        {
          "name": "success",
          "type": "bool"
        }
      ],
      "payable": false,
      "stateMutability": "nonpayable",
      "type": "function"
    },
    {
      "constant": true,
      "inputs": [
        {
          "name": "id",
          "type": "uint256"
        }
      ],
      "name": "getStoreBalance",
      "outputs": [
        {
          "name": "_storeBalance",
          "type": "uint256"
        }
      ],
      "payable": false,
      "stateMutability": "view",
      "type": "function"
    },
    {
      "constant": true,
      "inputs": [],
      "name": "getStoreBalance",
      "outputs": [
        {
          "name": "_storeBalance",
          "type": "uint256"
        }
      ],
      "payable": false,
      "stateMutability": "nonpayable",
      "type": "constructor"
    },
    {
      "inputs": [
        {
          "indexed": false,
          "name": "user",
          "type": "address"
        },
        {
          "indexed": false,
          "name": "id",
          "type": "uint256"
        },
        {
          "indexed": false,
          "name": "price",
          "type": "uint256"
        }
      ],
      "payable": false,
      "stateMutability": "nonpayable",
      "type": "event",
      "anonymous": false,
      "name": "BidPlaced"
    },
    {
      "anonymous": false,
      "inputs": [
        {
          "indexed": false,
          "name": "user",
          "type": "address"
        },
        {
          "indexed": false,
          "name": "id",
          "type": "uint256"
        },
        {
          "indexed": false,
          "name": "price",
          "type": "uint256"
        }
      ],
      "name": "BidRejected",
      "type": "event"
    },
    {
      "anonymous": false,
      "inputs": [
        {
          "indexed": false,
          "name": "id",
          "type": "uint256"
        },
        {
          "indexed": false,
          "name": "id",
          "type": "uint256"
        },
        {
          "indexed": false,
          "name": "price",
          "type": "uint256"
        }
      ],
      "name": "ProductCreated",
      "type": "event"
    },
    {
      "anonymous": false,
      "inputs": [
        {
          "indexed": false,
          "name": "id",
          "type": "uint256"
        }
      ],
      "name": "ProductCreationFailed",
      "type": "event"
    },
    {
      "anonymous": false,
      "inputs": [
        {
          "indexed": false,
          "name": "id",
          "type": "uint256"
        }
      ],
      "name": "DeleteProduct",
      "type": "event"
    },
    {
      "anonymous": false,
      "inputs": [
        {
          "indexed": false,
          "name": "id",
          "type": "uint256"
        }
      ],
      "name": "DeleteProductFailed",
      "type": "event"
    },
    {
      "anonymous": false,
      "inputs": [
        {
          "indexed": false,
          "name": "user",
          "type": "address"
        }
      ],
      "name": "UserCreated",
      "type": "event"
    },
    {
      "anonymous": false,
      "inputs": [
        {
          "indexed": false,
          "name": "user",
          "type": "address"
        }
      ],
      "name": "UserCreatedFailed",
      "type": "event"
    },
    {
      "anonymous": false,
      "inputs": [
        {
          "indexed": false,
          "name": "user",
          "type": "address"
        },
        {
          "indexed": false,
          "name": "id",
          "type": "uint256"
        },
        {
          "indexed": false,
          "name": "price",
          "type": "uint256"
        }
      ],
      "name": "CheckoutSuccess",
      "type": "event"
    },
    {
      "anonymous": false,
      "inputs": [
        {
          "indexed": false,
          "name": "user",
          "type": "address"
        },
        {
          "indexed": false,
          "name": "id",
          "type": "uint256"
        },
        {
          "indexed": false,
          "name": "price",
          "type": "uint256"
        }
      ],
      "name": "CheckoutFailed",
      "type": "event"
    },
    {
      "anonymous": false,
      "inputs": [
        {
          "indexed": false,
          "name": "sender",
          "type": "address"
        },
        {
          "indexed": false,
          "name": "id",
          "type": "uint256"
        },
        {
          "indexed": false,
          "name": "price",
          "type": "uint256"
        }
      ],
      "name": "StartupStore",
      "type": "event"
    },
    {
      "anonymous": false,
      "inputs": [
        {
          "indexed": false,
          "name": "sender",
          "type": "address"
        }
      ],
      "name": "StartupStore",
      "type": "event"
    }
  ],
  "bytecode": "0x6060604052341561000f57600080fd5b336000806101000a81548173ffffffffffffffffffffffffffffffffffffffff021916908373ffffffffffffffffffffffffffffffffffffffff160217905550336000806101000a81548173ffffffffffffffffffffffffffffffffffffffff021916908373ffffffffffffffffffffffffffffffffffffffff1602179055507f54686520416d617a696e67204353203531322053746f72650000000000000000600181600019169055507f51932deeeba980cb5f1c2818dace8d7e527646f5311588c897ed23bde254af6b33604051808273ffffffffffffffffffffffffffffffffffffffff1673ffffffffffffffffffffffffffffffffffffffff16815260200191505060405180910390a16113358061012c6000396000f3006060604052600436106100c5576000357c0100000000000000000000000000000000000000000000000000000000900463ffffffff168063019c08f5146100ca57806312065fe01461011f5780632d70c8d214610148578063521936e6146101bc57806357c90de5146101ed578063607e60eb146102265780637789b00a1461025357806385952454146102b1578063adf800d8146102ea578063d98534a914610302578063def2489b14610360578063ed90c7b7146103ad578063f05fae68146103e8575b600080fd5b34156100d557600080fd5b6100dd610411565b604051808273ffffffffffffffffffffffffffffffffffffffff1673ffffffffffffffffffffffffffffffffffffffff16815260200191505060405180910390f35b341561012a57600080fd5b610132610436565b6040518082815260200191505060405180910390f35b341561015357600080fd5b6101a2600480803573ffffffffffffffffffffffffffffffffffffffff169060200190919080356000191690602001909190803560001916906020019091908035906020019091905050610480565b604051808215151515815260200191505060405180910390f35b34156101c757600080fd5b6101cf610775565b60405180826000191660001916815260200191505060405180910390f35b61020c600480803590602001909190803590602001909190505061077b565b604051808215151515815260200191505060405180910390f35b341561023157600080fd5b610239610aa8565b604051808215151515815260200191505060405180910390f35b341561025e57600080fd5b61029760048080359060200190919080356000191690602001909190803560001916906020019091908035906020019091905050610ab1565b604051808215151515815260200191505060405180910390f35b34156102bc57600080fd5b6102e8600480803573ffffffffffffffffffffffffffffffffffffffff16906020019091905050610cd7565b005b6103006004808035906020019091905050610e05565b005b341561030d57600080fd5b610342600480803573ffffffffffffffffffffffffffffffffffffffff16906020019091908035906020019091905050611051565b60405180826000191660001916815260200191505060405180910390f35b341561036b57600080fd5b610397600480803573ffffffffffffffffffffffffffffffffffffffff16906020019091905050611080565b6040518082815260200191505060405180910390f35b34156103b857600080fd5b6103ce60048080359060200190919050506110a0565b604051808215151515815260200191505060405180910390f35b34156103f357600080fd5b6103fb6111e9565b6040518082815260200191505060405180910390f35b6000809054906101000a900473ffffffffffffffffffffffffffffffffffffffff1681565b6000600360003373ffffffffffffffffffffffffffffffffffffffff1673ffffffffffffffffffffffffffffffffffffffff16815260200190815260200160002060030154905090565b600061048a6111f3565b600073ffffffffffffffffffffffffffffffffffffffff168673ffffffffffffffffffffffffffffffffffffffff16141515610704577f3000000000000000000000000000000000000000000000000000000000000000600360003373ffffffffffffffffffffffffffffffffffffffff1673ffffffffffffffffffffffffffffffffffffffff16815260200190815260200160002060010154600019161415801561059c57507f3000000000000000000000000000000000000000000000000000000000000000600360003373ffffffffffffffffffffffffffffffffffffffff1673ffffffffffffffffffffffffffffffffffffffff168152602001908152602001600020600201546000191614155b156105e4576080604051908101604052808773ffffffffffffffffffffffffffffffffffffffff16815260200186600019168152602001856000191681526020018481525090505b80600360008873ffffffffffffffffffffffffffffffffffffffff1673ffffffffffffffffffffffffffffffffffffffff16815260200190815260200160002060008201518160000160006101000a81548173ffffffffffffffffffffffffffffffffffffffff021916908373ffffffffffffffffffffffffffffffffffffffff1602179055506020820151816001019060001916905560408201518160020190600019169055606082015181600301559050507f0b0376a109cbb578b709f85f6a7befcdac3ac1ab251c99ede87f30c9572ac4d386604051808273ffffffffffffffffffffffffffffffffffffffff1673ffffffffffffffffffffffffffffffffffffffff16815260200191505060405180910390a16001915061076c565b7ff941c7c5fcc45cf863d0b339ed4d59c752e7f57804ae4e37fe81dd9c9b14681986604051808273ffffffffffffffffffffffffffffffffffffffff1673ffffffffffffffffffffffffffffffffffffffff16815260200191505060405180910390a1600091505b50949350505050565b60015481565b600080600080610789611238565b6000339450600360008673ffffffffffffffffffffffffffffffffffffffff1673ffffffffffffffffffffffffffffffffffffffff168152602001908152602001600020935060046000898152602001908152602001600020925086846003015410806107f95750826003015487105b1561087a577fad3f08bcf990036015126ecde8b24bcaf0f023ece512a4aba4a96fadbaa0cf2d858989604051808473ffffffffffffffffffffffffffffffffffffffff1673ffffffffffffffffffffffffffffffffffffffff168152602001838152602001828152602001935050505060405180910390a160009550610a9d565b6060604051908101604052808981526020018673ffffffffffffffffffffffffffffffffffffffff1681526020018881525091506108b88589611051565b90508184600401600083600019166000191681526020019081526020016000206000820151816000015560208201518160010160006101000a81548173ffffffffffffffffffffffffffffffffffffffff021916908373ffffffffffffffffffffffffffffffffffffffff160217905550604082015181600201559050508183600901600083600019166000191681526020019081526020016000206000820151816000015560208201518160010160006101000a81548173ffffffffffffffffffffffffffffffffffffffff021916908373ffffffffffffffffffffffffffffffffffffffff160217905550604082015181600201559050508260060160020154871115610a255781836006016000820151816000015560208201518160010160006101000a81548173ffffffffffffffffffffffffffffffffffffffff021916908373ffffffffffffffffffffffffffffffffffffffff160217905550604082015181600201559050505b7fdf8644c0a4c21ed214ce69f395675b3a5fcd1039083daea5058898de40ea3149858989604051808473ffffffffffffffffffffffffffffffffffffffff1673ffffffffffffffffffffffffffffffffffffffff168152602001838152602001828152602001935050505060405180910390a1600195505b505050505092915050565b60006001905090565b6000610abb611270565b60e06040519081016040528087815260200186600019168152602001856000191681526020018481526020018481526020013373ffffffffffffffffffffffffffffffffffffffff16815260200160606040519081016040528060008152602001600073ffffffffffffffffffffffffffffffffffffffff16815260200160008152508152509050600081606001511115610c92578060046000888152602001908152602001600020600082015181600001556020820151816001019060001916905560408201518160020190600019169055606082015181600301556080820151816004015560a08201518160050160006101000a81548173ffffffffffffffffffffffffffffffffffffffff021916908373ffffffffffffffffffffffffffffffffffffffff16021790555060c0820151816006016000820151816000015560208201518160010160006101000a81548173ffffffffffffffffffffffffffffffffffffffff021916908373ffffffffffffffffffffffffffffffffffffffff1602179055506040820151816002015550509050507f8bfed7c0004768df129b4900300816f8e85b8633621048ae882252021aa699b2866040518082815260200191505060405180910390a160019150610cce565b7f28004c9670944fac4f236b0c0b975343d6c26e51463ea994a413a72407cb45aa866040518082815260200191505060405180910390a1600091505b50949350505050565b6000809054906101000a900473ffffffffffffffffffffffffffffffffffffffff1673ffffffffffffffffffffffffffffffffffffffff163373ffffffffffffffffffffffffffffffffffffffff16141515610d3257600080fd5b600073ffffffffffffffffffffffffffffffffffffffff168173ffffffffffffffffffffffffffffffffffffffff1614158015610dbc57506000809054906101000a900473ffffffffffffffffffffffffffffffffffffffff1673ffffffffffffffffffffffffffffffffffffffff168173ffffffffffffffffffffffffffffffffffffffff1614155b15610e0257806000806101000a81548173ffffffffffffffffffffffffffffffffffffffff021916908373ffffffffffffffffffffffffffffffffffffffff1602179055505b50565b6000806000600460008581526020019081526020016000206006019250600360008360000160009054906101000a900473ffffffffffffffffffffffffffffffffffffffff1673ffffffffffffffffffffffffffffffffffffffff1673ffffffffffffffffffffffffffffffffffffffff16815260200190815260200160002091508260020154905080826003015410151561104b578082600301600082825403925050819055506004600085815260200190815260200160002060050160009054906101000a900473ffffffffffffffffffffffffffffffffffffffff1673ffffffffffffffffffffffffffffffffffffffff166108fc829081150290604051600060405180830381858888f193505050501515610f2357600080fd5b816004016000610f578460000160009054906101000a900473ffffffffffffffffffffffffffffffffffffffff1687611051565b600019166000191681526020019081526020016000206000808201600090556001820160006101000a81549073ffffffffffffffffffffffffffffffffffffffff0219169055600282016000905550506004600085815260200190815260200160002060008082016000905560018201600090556002820160009055600382016000905560048201600090556005820160006101000a81549073ffffffffffffffffffffffffffffffffffffffff0219169055600682016000808201600090556001820160006101000a81549073ffffffffffffffffffffffffffffffffffffffff02191690556002820160009055505050505b50505050565b6000808261105e85611080565b0190508060405180828152602001915050604051809103902091505092915050565b60008173ffffffffffffffffffffffffffffffffffffffff169050919050565b60008060046000848152602001908152602001600020905082816000015414156111a7576004600084815260200190815260200160002060008082016000905560018201600090556002820160009055600382016000905560048201600090556005820160006101000a81549073ffffffffffffffffffffffffffffffffffffffff0219169055600682016000808201600090556001820160006101000a81549073ffffffffffffffffffffffffffffffffffffffff02191690556002820160009055505050507f0e10ee3ece1ddd5966cebc571a843f6af8abd1fa7b2ef3d7279c44873b1e7bf8836040518082815260200191505060405180910390a1600191506111e3565b7fa3d14c052667b638bed614b45524df6a4181f85d7837fee4723d35293755f425836040518082815260200191505060405180910390a1600091505b50919050565b6000600254905090565b608060405190810160405280600073ffffffffffffffffffffffffffffffffffffffff1681526020016000801916815260200160008019168152602001600081525090565b60606040519081016040528060008152602001600073ffffffffffffffffffffffffffffffffffffffff168152602001600081525090565b610120604051908101604052806000815260200160008019168152602001600080191681526020016000815260200160008152602001600073ffffffffffffffffffffffffffffffffffffffff1681526020016112cb6112d1565b81525090565b60606040519081016040528060008152602001600073ffffffffffffffffffffffffffffffffffffffff1681526020016000815250905600a165627a7a72305820ca6d18e1076ccab9aa5e62247976841230726869ff9ea3b7949dcaf32d82c2960029",
  "source": "pragma solidity ^0.4.17;\n\nimport \"./ProductOwner.sol\";\n\ncontract Store is ProductOwner {\n\tbytes32 public storeName;\n\tuint256 private storeBalance;\n\n\tmapping (address => User) users;\n\tmapping (uint256 => Product) products;\n\n\tevent BidPlaced(address user, uint256 id, uint256 price);\n\tevent BidRejected(address user, uint256 id, uint256 price);\n\n\tevent ProductCreated(uint256 id);\n\tevent ProductCreationFailed(uint256 id);\n\n\tevent DeleteProduct(uint256 id);\n\tevent DeleteProductFailed(uint256 id);\n\n\tevent UserCreated(address user);\n\tevent UserCreatedFailed(address user);\n\n\tevent CheckoutSuccess(address user, uint256 id, uint256 price);\n\tevent CheckoutFailed(address user, uint256 id, uint256 price);\n\n\tevent StartupStore(address sender);\n\n\tstruct User {\n\t\taddress adr;\n\t\tbytes32 email;\n\t\tbytes32 name;\n\t\tuint256 balance;\n\t\tmapping(bytes32 => Bid) bids;\n\t}\n\n\tstruct Bid {\n\t\tuint256 productId;\n\t\taddress adr;\n\t\tuint256 price;\n\t}\n\n\tstruct Product {\n\t\tuint256 id;\n\t\tbytes32 name;\n\t\tbytes32 description;\n\t\tuint256 price;\n\t\tuint256 startingPrice;\n\t\taddress lister;\n\t\tBid topBid;\n\t\tmapping(bytes32 => Bid) bids;\n\t}\n\n\tstruct Receipt {\n\t\tbytes productId;\n\t\tuint256 price;\n\t}\n\n\tfunction Store() public {\n\t\townerId = msg.sender;\n\t\tstoreName = \"The Amazing CS 512 Store\";\n\t\tStartupStore(msg.sender);\n\t}\n\n\tfunction newProduct(uint256 id, bytes32 name, bytes32 description, uint256 price)\n\t\t\t\t\t\tpublic returns (bool success) {\n\t\tProduct memory product = Product(id, name, description, price, price, msg.sender, Bid(0, 0, 0));\n\t\tif (product.price > 0) {\n\t\t\tproducts[id] = product;\n\t\t\tProductCreated(id);\n\t\t\treturn true;\n\t\t}\n\t\tProductCreationFailed(id);\n\t\treturn false;\n\t}\n\n\tfunction deleteProduct(uint256 id) public returns (bool success) {\n\t\tProduct storage product = products[id];\n\t\tif (product.id == id) {\n\t\t\tdelete products[id];\n\t\t\tDeleteProduct(id);\n\t\t\treturn true;\n\t\t}\n\t\tDeleteProductFailed(id);\n\t\treturn false;\n\t}\n\n\tfunction newUser(address _address, bytes32 _email, bytes32 _name, uint256 _balance)\n\t\t\t\t\tpublic returns (bool success) {\n\t\tif (_address != address(0)) { if (users[msg.sender].email != '0' && users[msg.sender].name != '0')\n\t\t\tUser memory user = User({ adr: _address, email: _email,\n\t\t\t\t\t\t\t\t\tname: _name, balance: _balance\n\t\t\t\t\t\t\t\t});\n\t\t\tusers[_address] = user;\n\t\t\tUserCreated(_address);\n\t\t\treturn true;\n\t\t}\n\t\tUserCreatedFailed(_address);\n\t\treturn false;\n\t}\n\n\tfunction placeBid(uint256 id, uint256 bidPrice) public payable returns (bool success) {\n\t\taddress userAddress = msg.sender;\n\t\tUser storage user = users[userAddress];\n\t\tProduct storage product = products[id];\n\n\t\tif (user.balance < bidPrice || bidPrice < product.price) {\n\t\t\tBidRejected(userAddress, id, bidPrice);\n\t\t\treturn false;\n\t\t}\n\n\t\tBid memory newBid = Bid(id, userAddress, bidPrice);\n\t\tbytes32 bidId = generateBidId(userAddress, id);\n\t\tuser.bids[bidId] = newBid;\n\t\tproduct.bids[bidId] = newBid;\n\t\tif (bidPrice > product.topBid.price) {\n\t\t\tproduct.topBid = newBid;\n\t\t}\n\t\tBidPlaced(userAddress, id, bidPrice);\n\t\treturn true;\n\t}\n\n\tfunction generateBidId(address user, uint256 productId) public returns (bytes32 bidId) {\n\t\tuint256 combined = convert(user) + productId;\n\t\treturn keccak256(combined);\n\t}\n\n\tfunction convert(address userAddress) public returns (uint256 uAddress256) {\n\t\treturn uint256(userAddress);\n\t}\n\n\tfunction yo() constant public returns (bool hello) {\n\n\t\treturn true;\n\t}\n\n\tfunction getBalance() constant public returns (uint256 _balance) {\n\t\treturn users[msg.sender].balance;\n    }\n\n    function getStoreBalance() constant public returns (uint256 _storeBalance) {\n    \treturn storeBalance;\n    }\n\n    function endBid(uint256 productId) public payable {\n    \tBid storage winningBid = products[productId].topBid;\n    \tUser storage winner = users[winner.adr];\n    \tuint256 bidPrice = winningBid.price;\n\t\tif (winner.balance >= bidPrice) {\n\t\t\twinner.balance -= bidPrice;\n\t\t\tproducts[productId].lister.transfer(bidPrice); // payout lister\n\t\t\tdelete winner.bids[generateBidId(winner.adr, productId)];\n\t\t\tdelete products[productId];\n\t\t}\n    }\n\n}\n",
  "sourcePath": "/Users/adam/Documents/cs512finalproject/contracts/Store.sol",
  "compiler": {
    "name": "solc",
    "version": "0.4.18+commit.9cf6e910.Emscripten.clang"
  },
  "schemaVersion": "1.0.1",
  "updatedAt": "2017-12-16T10:04:37.791Z"
}