{
  "contractName": "Store",
  "abi": [
    {
      "constant": true,
      "inputs": [],
      "name": "ownerId",
      "outputs": [
        {
          "name": "",
          "type": "address"
        }
      ],
      "payable": false,
      "stateMutability": "view",
      "type": "function"
    },
    {
      "constant": true,
      "inputs": [],
      "name": "getBalance",
      "outputs": [
        {
          "name": "_balance",
          "type": "uint256"
        }
      ],
      "payable": false,
      "stateMutability": "view",
      "type": "function"
    },
    {
      "constant": true,
      "inputs": [],
      "name": "storeName",
      "outputs": [
        {
          "name": "",
          "type": "bytes32"
        }
      ],
      "payable": false,
      "stateMutability": "view",
      "type": "function"
    },
    {
      "constant": false,
      "inputs": [
        {
          "name": "id",
          "type": "uint256"
        },
        {
          "name": "bidPrice",
          "type": "uint256"
        }
      ],
      "name": "placeBid",
      "outputs": [
        {
          "name": "success",
          "type": "bool"
        }
      ],
      "payable": true,
      "stateMutability": "payable",
      "type": "function"
    },
    {
      "constant": true,
      "inputs": [],
      "name": "yo",
      "outputs": [
        {
          "name": "hello",
          "type": "bool"
        }
      ],
      "payable": false,
      "stateMutability": "view",
      "type": "function"
    },
    {
      "constant": false,
      "inputs": [
        {
          "name": "id",
          "type": "uint256"
        },
        {
          "name": "name",
          "type": "bytes32"
        },
        {
          "name": "description",
          "type": "bytes32"
        },
        {
          "name": "price",
          "type": "uint256"
        }
      ],
      "name": "newProduct",
      "outputs": [
        {
          "name": "success",
          "type": "bool"
        }
      ],
      "payable": false,
      "stateMutability": "nonpayable",
      "type": "function"
    },
    {
      "constant": false,
      "inputs": [
        {
          "name": "_email",
          "type": "bytes32"
        },
        {
          "name": "_name",
          "type": "bytes32"
        },
        {
          "name": "_balance",
          "type": "uint256"
        }
      ],
      "name": "newUser",
      "outputs": [
        {
          "name": "success",
          "type": "bool"
        }
      ],
      "payable": false,
      "stateMutability": "nonpayable",
      "type": "function"
    },
    {
      "constant": false,
      "inputs": [
        {
          "name": "newOwnerId",
          "type": "address"
        }
      ],
      "name": "newOwner",
      "outputs": [],
      "payable": false,
      "stateMutability": "nonpayable",
      "type": "function"
    },
    {
      "constant": false,
      "inputs": [
        {
          "name": "productId",
          "type": "uint256"
        }
      ],
      "name": "endBid",
      "outputs": [],
      "payable": true,
      "stateMutability": "payable",
      "type": "function"
    },
    {
      "constant": false,
      "inputs": [
        {
          "name": "user",
          "type": "address"
        },
        {
          "name": "productId",
          "type": "uint256"
        }
      ],
      "name": "generateBidId",
      "outputs": [
        {
          "name": "bidId",
          "type": "bytes32"
        }
      ],
      "payable": false,
      "stateMutability": "nonpayable",
      "type": "function"
    },
    {
      "constant": false,
      "inputs": [
        {
          "name": "userAddress",
          "type": "address"
        }
      ],
      "name": "convert",
      "outputs": [
        {
          "name": "uAddress256",
          "type": "uint256"
        }
      ],
      "payable": false,
      "stateMutability": "nonpayable",
      "type": "function"
    },
    {
      "constant": false,
      "inputs": [],
      "name": "userExists",
      "outputs": [
        {
          "name": "exists",
          "type": "bool"
        }
      ],
      "payable": false,
      "stateMutability": "nonpayable",
      "type": "function"
    },
    {
      "constant": false,
      "inputs": [
        {
          "name": "id",
          "type": "uint256"
        }
      ],
      "name": "deleteProduct",
      "outputs": [
        {
          "name": "success",
          "type": "bool"
        }
      ],
      "payable": false,
      "stateMutability": "nonpayable",
      "type": "function"
    },
    {
      "constant": true,
      "inputs": [],
      "name": "getStoreBalance",
      "outputs": [
        {
          "name": "_storeBalance",
          "type": "uint256"
        }
      ],
      "payable": false,
      "stateMutability": "view",
      "type": "function"
    },
    {
      "inputs": [],
      "payable": false,
      "stateMutability": "nonpayable",
      "type": "constructor"
    },
    {
      "anonymous": false,
      "inputs": [
        {
          "indexed": false,
          "name": "user",
          "type": "address"
        },
        {
          "indexed": false,
          "name": "id",
          "type": "uint256"
        },
        {
          "indexed": false,
          "name": "price",
          "type": "uint256"
        }
      ],
      "name": "BidPlaced",
      "type": "event"
    },
    {
      "anonymous": false,
      "inputs": [
        {
          "indexed": false,
          "name": "user",
          "type": "address"
        },
        {
          "indexed": false,
          "name": "id",
          "type": "uint256"
        },
        {
          "indexed": false,
          "name": "price",
          "type": "uint256"
        }
      ],
      "name": "BidRejected",
      "type": "event"
    },
    {
      "anonymous": false,
      "inputs": [
        {
          "indexed": false,
          "name": "id",
          "type": "uint256"
        }
      ],
      "name": "ProductCreated",
      "type": "event"
    },
    {
      "anonymous": false,
      "inputs": [
        {
          "indexed": false,
          "name": "id",
          "type": "uint256"
        }
      ],
      "name": "ProductCreationFailed",
      "type": "event"
    },
    {
      "anonymous": false,
      "inputs": [
        {
          "indexed": false,
          "name": "id",
          "type": "uint256"
        }
      ],
      "name": "DeleteProduct",
      "type": "event"
    },
    {
      "anonymous": false,
      "inputs": [
        {
          "indexed": false,
          "name": "id",
          "type": "uint256"
        }
      ],
      "name": "DeleteProductFailed",
      "type": "event"
    },
    {
      "anonymous": false,
      "inputs": [
        {
          "indexed": false,
          "name": "user",
          "type": "address"
        }
      ],
      "name": "UserCreated",
      "type": "event"
    },
    {
      "anonymous": false,
      "inputs": [
        {
          "indexed": false,
          "name": "user",
          "type": "address"
        }
      ],
      "name": "UserCreatedFailed",
      "type": "event"
    },
    {
      "anonymous": false,
      "inputs": [
        {
          "indexed": false,
          "name": "user",
          "type": "address"
        },
        {
          "indexed": false,
          "name": "id",
          "type": "uint256"
        },
        {
          "indexed": false,
          "name": "price",
          "type": "uint256"
        }
      ],
      "name": "CheckoutSuccess",
      "type": "event"
    },
    {
      "anonymous": false,
      "inputs": [
        {
          "indexed": false,
          "name": "user",
          "type": "address"
        },
        {
          "indexed": false,
          "name": "id",
          "type": "uint256"
        },
        {
          "indexed": false,
          "name": "price",
          "type": "uint256"
        }
      ],
      "name": "CheckoutFailed",
      "type": "event"
    },
    {
      "anonymous": false,
      "inputs": [
        {
          "indexed": false,
          "name": "sender",
          "type": "address"
        }
      ],
      "name": "StartupStore",
      "type": "event"
    }
  ],
  "bytecode": "0x6060604052341561000f57600080fd5b336000806101000a81548173ffffffffffffffffffffffffffffffffffffffff021916908373ffffffffffffffffffffffffffffffffffffffff160217905550336000806101000a81548173ffffffffffffffffffffffffffffffffffffffff021916908373ffffffffffffffffffffffffffffffffffffffff1602179055507f54686520416d617a696e67204353203531322053746f72650000000000000000600181600019169055507f51932deeeba980cb5f1c2818dace8d7e527646f5311588c897ed23bde254af6b33604051808273ffffffffffffffffffffffffffffffffffffffff1673ffffffffffffffffffffffffffffffffffffffff16815260200191505060405180910390a16112fb8061012c6000396000f3006060604052600436106100d0576000357c0100000000000000000000000000000000000000000000000000000000900463ffffffff168063019c08f5146100d557806312065fe01461012a578063521936e61461015357806357c90de514610184578063607e60eb146101bd5780637789b00a146101ea5780637a22e8b014610248578063859524541461029d578063adf800d8146102d6578063d98534a9146102ee578063def2489b1461034c578063eae6d4da14610399578063ed90c7b7146103c6578063f05fae6814610401575b600080fd5b34156100e057600080fd5b6100e861042a565b604051808273ffffffffffffffffffffffffffffffffffffffff1673ffffffffffffffffffffffffffffffffffffffff16815260200191505060405180910390f35b341561013557600080fd5b61013d61044f565b6040518082815260200191505060405180910390f35b341561015e57600080fd5b610166610499565b60405180826000191660001916815260200191505060405180910390f35b6101a3600480803590602001909190803590602001909190505061049f565b604051808215151515815260200191505060405180910390f35b34156101c857600080fd5b6101d06107cc565b604051808215151515815260200191505060405180910390f35b34156101f557600080fd5b61022e600480803590602001909190803560001916906020019091908035600019169060200190919080359060200190919050506107d5565b604051808215151515815260200191505060405180910390f35b341561025357600080fd5b610283600480803560001916906020019091908035600019169060200190919080359060200190919050506109fb565b604051808215151515815260200191505060405180910390f35b34156102a857600080fd5b6102d4600480803573ffffffffffffffffffffffffffffffffffffffff16906020019091905050610c04565b005b6102ec6004808035906020019091905050610d32565b005b34156102f957600080fd5b61032e600480803573ffffffffffffffffffffffffffffffffffffffff16906020019091908035906020019091905050610f7e565b60405180826000191660001916815260200191505060405180910390f35b341561035757600080fd5b610383600480803573ffffffffffffffffffffffffffffffffffffffff16906020019091905050610fad565b6040518082815260200191505060405180910390f35b34156103a457600080fd5b6103ac610fcd565b604051808215151515815260200191505060405180910390f35b34156103d157600080fd5b6103e76004808035906020019091905050611066565b604051808215151515815260200191505060405180910390f35b341561040c57600080fd5b6104146111af565b6040518082815260200191505060405180910390f35b6000809054906101000a900473ffffffffffffffffffffffffffffffffffffffff1681565b6000600360003373ffffffffffffffffffffffffffffffffffffffff1673ffffffffffffffffffffffffffffffffffffffff16815260200190815260200160002060030154905090565b60015481565b6000806000806104ad6111b9565b6000339450600360008673ffffffffffffffffffffffffffffffffffffffff1673ffffffffffffffffffffffffffffffffffffffff1681526020019081526020016000209350600460008981526020019081526020016000209250868460030154108061051d5750826003015487105b1561059e577fad3f08bcf990036015126ecde8b24bcaf0f023ece512a4aba4a96fadbaa0cf2d858989604051808473ffffffffffffffffffffffffffffffffffffffff1673ffffffffffffffffffffffffffffffffffffffff168152602001838152602001828152602001935050505060405180910390a1600095506107c1565b6060604051908101604052808981526020018673ffffffffffffffffffffffffffffffffffffffff1681526020018881525091506105dc8589610f7e565b90508184600401600083600019166000191681526020019081526020016000206000820151816000015560208201518160010160006101000a81548173ffffffffffffffffffffffffffffffffffffffff021916908373ffffffffffffffffffffffffffffffffffffffff160217905550604082015181600201559050508183600901600083600019166000191681526020019081526020016000206000820151816000015560208201518160010160006101000a81548173ffffffffffffffffffffffffffffffffffffffff021916908373ffffffffffffffffffffffffffffffffffffffff1602179055506040820151816002015590505082600601600201548711156107495781836006016000820151816000015560208201518160010160006101000a81548173ffffffffffffffffffffffffffffffffffffffff021916908373ffffffffffffffffffffffffffffffffffffffff160217905550604082015181600201559050505b7fdf8644c0a4c21ed214ce69f395675b3a5fcd1039083daea5058898de40ea3149858989604051808473ffffffffffffffffffffffffffffffffffffffff1673ffffffffffffffffffffffffffffffffffffffff168152602001838152602001828152602001935050505060405180910390a1600195505b505050505092915050565b60006001905090565b60006107df6111f1565b60e06040519081016040528087815260200186600019168152602001856000191681526020018481526020018481526020013373ffffffffffffffffffffffffffffffffffffffff16815260200160606040519081016040528060008152602001600073ffffffffffffffffffffffffffffffffffffffff168152602001600081525081525090506000816060015111156109b6578060046000888152602001908152602001600020600082015181600001556020820151816001019060001916905560408201518160020190600019169055606082015181600301556080820151816004015560a08201518160050160006101000a81548173ffffffffffffffffffffffffffffffffffffffff021916908373ffffffffffffffffffffffffffffffffffffffff16021790555060c0820151816006016000820151816000015560208201518160010160006101000a81548173ffffffffffffffffffffffffffffffffffffffff021916908373ffffffffffffffffffffffffffffffffffffffff1602179055506040820151816002015550509050507f8bfed7c0004768df129b4900300816f8e85b8633621048ae882252021aa699b2866040518082815260200191505060405180910390a1600191506109f2565b7f28004c9670944fac4f236b0c0b975343d6c26e51463ea994a413a72407cb45aa866040518082815260200191505060405180910390a1600091505b50949350505050565b6000610a05611252565b6000809054906101000a900473ffffffffffffffffffffffffffffffffffffffff1673ffffffffffffffffffffffffffffffffffffffff163373ffffffffffffffffffffffffffffffffffffffff16141515610a6057600080fd5b600073ffffffffffffffffffffffffffffffffffffffff16600360003373ffffffffffffffffffffffffffffffffffffffff1673ffffffffffffffffffffffffffffffffffffffff16815260200190815260200160002060000160009054906101000a900473ffffffffffffffffffffffffffffffffffffffff1673ffffffffffffffffffffffffffffffffffffffff16141515610bf7576080604051908101604052803373ffffffffffffffffffffffffffffffffffffffff168152602001866000191681526020018560001916815260200184815250905080600360003373ffffffffffffffffffffffffffffffffffffffff1673ffffffffffffffffffffffffffffffffffffffff16815260200190815260200160002060008201518160000160006101000a81548173ffffffffffffffffffffffffffffffffffffffff021916908373ffffffffffffffffffffffffffffffffffffffff16021790555060208201518160010190600019169055604082015181600201906000191690556060820151816003015590505060019150610bfc565b600091505b509392505050565b6000809054906101000a900473ffffffffffffffffffffffffffffffffffffffff1673ffffffffffffffffffffffffffffffffffffffff163373ffffffffffffffffffffffffffffffffffffffff16141515610c5f57600080fd5b600073ffffffffffffffffffffffffffffffffffffffff168173ffffffffffffffffffffffffffffffffffffffff1614158015610ce957506000809054906101000a900473ffffffffffffffffffffffffffffffffffffffff1673ffffffffffffffffffffffffffffffffffffffff168173ffffffffffffffffffffffffffffffffffffffff1614155b15610d2f57806000806101000a81548173ffffffffffffffffffffffffffffffffffffffff021916908373ffffffffffffffffffffffffffffffffffffffff1602179055505b50565b6000806000600460008581526020019081526020016000206006019250600360008360000160009054906101000a900473ffffffffffffffffffffffffffffffffffffffff1673ffffffffffffffffffffffffffffffffffffffff1673ffffffffffffffffffffffffffffffffffffffff168152602001908152602001600020915082600201549050808260030154101515610f78578082600301600082825403925050819055506004600085815260200190815260200160002060050160009054906101000a900473ffffffffffffffffffffffffffffffffffffffff1673ffffffffffffffffffffffffffffffffffffffff166108fc829081150290604051600060405180830381858888f193505050501515610e5057600080fd5b816004016000610e848460000160009054906101000a900473ffffffffffffffffffffffffffffffffffffffff1687610f7e565b600019166000191681526020019081526020016000206000808201600090556001820160006101000a81549073ffffffffffffffffffffffffffffffffffffffff0219169055600282016000905550506004600085815260200190815260200160002060008082016000905560018201600090556002820160009055600382016000905560048201600090556005820160006101000a81549073ffffffffffffffffffffffffffffffffffffffff0219169055600682016000808201600090556001820160006101000a81549073ffffffffffffffffffffffffffffffffffffffff02191690556002820160009055505050505b50505050565b60008082610f8b85610fad565b0190508060405180828152602001915050604051809103902091505092915050565b60008173ffffffffffffffffffffffffffffffffffffffff169050919050565b60003373ffffffffffffffffffffffffffffffffffffffff16600360003373ffffffffffffffffffffffffffffffffffffffff1673ffffffffffffffffffffffffffffffffffffffff16815260200190815260200160002060000160009054906101000a900473ffffffffffffffffffffffffffffffffffffffff1673ffffffffffffffffffffffffffffffffffffffff161415905090565b600080600460008481526020019081526020016000209050828160000154141561116d576004600084815260200190815260200160002060008082016000905560018201600090556002820160009055600382016000905560048201600090556005820160006101000a81549073ffffffffffffffffffffffffffffffffffffffff0219169055600682016000808201600090556001820160006101000a81549073ffffffffffffffffffffffffffffffffffffffff02191690556002820160009055505050507f0e10ee3ece1ddd5966cebc571a843f6af8abd1fa7b2ef3d7279c44873b1e7bf8836040518082815260200191505060405180910390a1600191506111a9565b7fa3d14c052667b638bed614b45524df6a4181f85d7837fee4723d35293755f425836040518082815260200191505060405180910390a1600091505b50919050565b6000600254905090565b60606040519081016040528060008152602001600073ffffffffffffffffffffffffffffffffffffffff168152602001600081525090565b610120604051908101604052806000815260200160008019168152602001600080191681526020016000815260200160008152602001600073ffffffffffffffffffffffffffffffffffffffff16815260200161124c611297565b81525090565b608060405190810160405280600073ffffffffffffffffffffffffffffffffffffffff1681526020016000801916815260200160008019168152602001600081525090565b60606040519081016040528060008152602001600073ffffffffffffffffffffffffffffffffffffffff1681526020016000815250905600a165627a7a723058208f9823ac21fd6d5750018ae4b99e90611773a90ba4d8c493fabcc7afab7de4d90029",
  "source": "pragma solidity ^0.4.17;\n\nimport \"./ProductOwner.sol\";\n\ncontract Store is ProductOwner {\n\tbytes32 public storeName;\n\tuint256 private storeBalance;\n\n\tmapping (address => User) users;\n\tmapping (uint256 => Product) products;\n\n\tevent BidPlaced(address user, uint256 id, uint256 price);\n\tevent BidRejected(address user, uint256 id, uint256 price);\n\n\tevent ProductCreated(uint256 id);\n\tevent ProductCreationFailed(uint256 id);\n\n\tevent DeleteProduct(uint256 id);\n\tevent DeleteProductFailed(uint256 id);\n\n\tevent UserCreated(address user);\n\tevent UserCreatedFailed(address user);\n\n\tevent CheckoutSuccess(address user, uint256 id, uint256 price);\n\tevent CheckoutFailed(address user, uint256 id, uint256 price);\n\n\tevent StartupStore(address sender);\n\n\tstruct User {\n\t\taddress adr;\n\t\tbytes32 email;\n\t\tbytes32 name;\n\t\tuint256 balance;\n\t\tmapping(bytes32 => Bid) bids;\n\t}\n\n\tstruct Bid {\n\t\tuint256 productId;\n\t\taddress adr;\n\t\tuint256 price;\n\t}\n\n\tstruct Product {\n\t\tuint256 id;\n\t\tbytes32 name;\n\t\tbytes32 description;\n\t\tuint256 price;\n\t\tuint256 startingPrice;\n\t\taddress lister;\n\t\tBid topBid;\n\t\tmapping(bytes32 => Bid) bids;\n\t}\n\n\tstruct Receipt {\n\t\tbytes productId;\n\t\tuint256 price;\n\t}\n\n\tfunction Store() public {\n\t\townerId = msg.sender;\n\t\tstoreName = \"The Amazing CS 512 Store\";\n\t\tStartupStore(msg.sender);\n\t}\n\n\tfunction newProduct(uint256 id, bytes32 name, bytes32 description, uint256 price)\n\t\t\t\t\t\tpublic returns (bool success) {\n\t\tProduct memory product = Product(id, name, description, price, price, msg.sender, Bid(0, 0, 0));\n\t\tif (product.price > 0) {\n\t\t\tproducts[id] = product;\n\t\t\tProductCreated(id);\n\t\t\treturn true;\n\t\t}\n\t\tProductCreationFailed(id);\n\t\treturn false;\n\t}\n\n\tfunction deleteProduct(uint256 id) public returns (bool success) {\n\t\tProduct storage product = products[id];\n\t\tif (product.id == id) {\n\t\t\tdelete products[id];\n\t\t\tDeleteProduct(id);\n\t\t\treturn true;\n\t\t}\n\t\tDeleteProductFailed(id);\n\t\treturn false;\n\t}\n\n\tfunction newUser(bytes32 _email, bytes32 _name, uint256 _balance)\n\t\t\t\t\tisOwner public returns (bool success) {\n\t\tif (users[msg.sender].adr != address(0)) {\n\t\t\tUser memory user = User({ adr: msg.sender, email: _email,\n\t\t\t\t\t\t\t\t\tname: _name, balance: _balance\n\t\t\t\t\t\t\t\t});\n\t\t\tusers[msg.sender] = user;\n\t\t\t/* UserCreated(_address); */\n\t\t\treturn true;\n\t\t}\n\t\t/* UserCreatedFailed(_address); */\n\t\treturn false;\n\t}\n\n\tfunction placeBid(uint256 id, uint256 bidPrice) public payable returns (bool success) {\n\t\taddress userAddress = msg.sender;\n\t\tUser storage user = users[userAddress];\n\t\tProduct storage product = products[id];\n\n\t\tif (user.balance < bidPrice || bidPrice < product.price) {\n\t\t\tBidRejected(userAddress, id, bidPrice);\n\t\t\treturn false;\n\t\t}\n\n\t\tBid memory newBid = Bid(id, userAddress, bidPrice);\n\t\tbytes32 bidId = generateBidId(userAddress, id);\n\t\tuser.bids[bidId] = newBid;\n\t\tproduct.bids[bidId] = newBid;\n\t\tif (bidPrice > product.topBid.price) {\n\t\t\tproduct.topBid = newBid;\n\t\t}\n\t\tBidPlaced(userAddress, id, bidPrice);\n\t\treturn true;\n\t}\n\n\tfunction generateBidId(address user, uint256 productId) public returns (bytes32 bidId) {\n\t\tuint256 combined = convert(user) + productId;\n\t\treturn keccak256(combined);\n\t}\n\n\tfunction convert(address userAddress) public returns (uint256 uAddress256) {\n\t\treturn uint256(userAddress);\n\t}\n\n\tfunction userExists () public returns (bool exists){\n\t\treturn users[msg.sender].adr != msg.sender;\n\t}\n\n\tfunction yo() constant public returns (bool hello) {\n\t\treturn true;\n\t}\n\n\tfunction getBalance() constant public returns (uint256 _balance) {\n\t\treturn users[msg.sender].balance;\n    }\n\n    function getStoreBalance() constant public returns (uint256 _storeBalance) {\n    \treturn storeBalance;\n    }\n\n    function endBid(uint256 productId) public payable {\n    \tBid storage winningBid = products[productId].topBid;\n    \tUser storage winner = users[winner.adr];\n    \tuint256 bidPrice = winningBid.price;\n\t\tif (winner.balance >= bidPrice) {\n\t\t\twinner.balance -= bidPrice;\n\t\t\tproducts[productId].lister.transfer(bidPrice); // payout lister\n\t\t\tdelete winner.bids[generateBidId(winner.adr, productId)];\n\t\t\tdelete products[productId];\n\t\t}\n    }\n\n}\n",
  "sourcePath": "/Users/adam/Documents/cs512finalproject/contracts/Store.sol",
  "compiler": {
    "name": "solc",
    "version": "0.4.18+commit.9cf6e910.Emscripten.clang"
  },
  "schemaVersion": "1.0.1",
  "updatedAt": "2017-12-16T11:55:19.995Z"
}