{
  "contractName": "Store",
  "abi": [
    {
      "constant": true,
      "inputs": [],
      "name": "ownerId",
      "outputs": [
        {
          "name": "",
          "type": "address"
        }
      ],
      "payable": false,
      "stateMutability": "view",
      "type": "function"
    },
    {
      "constant": true,
      "inputs": [],
      "name": "getBalance",
      "outputs": [
        {
          "name": "_balance",
          "type": "uint256"
        }
      ],
      "payable": false,
      "stateMutability": "view",
      "type": "function"
    },
    {
      "constant": false,
      "inputs": [
        {
          "name": "_address",
          "type": "address"
        },
        {
          "name": "_email",
          "type": "bytes32"
        },
        {
          "name": "_name",
          "type": "bytes32"
        },
        {
          "name": "_balance",
          "type": "uint256"
        }
      ],
      "name": "newUser",
      "outputs": [
        {
          "name": "success",
          "type": "bool"
        }
      ],
      "payable": false,
      "stateMutability": "nonpayable",
      "type": "function"
    },
    {
      "constant": true,
      "inputs": [],
      "name": "storeName",
      "outputs": [
        {
          "name": "",
          "type": "bytes32"
        }
      ],
      "payable": false,
      "stateMutability": "view",
      "type": "function"
    },
    {
      "constant": false,
      "inputs": [
        {
          "name": "id",
          "type": "uint256"
        },
        {
          "name": "bidPrice",
          "type": "uint256"
        }
      ],
      "name": "placeBid",
      "outputs": [
        {
          "name": "success",
          "type": "bool"
        }
      ],
      "payable": false,
      "stateMutability": "nonpayable",
      "type": "function"
    },
    {
      "constant": true,
      "inputs": [],
      "name": "yo",
      "outputs": [
        {
          "name": "hello",
          "type": "bool"
        }
      ],
      "payable": false,
      "stateMutability": "view",
      "type": "function"
    },
    {
      "constant": false,
      "inputs": [
        {
          "name": "id",
          "type": "uint256"
        },
        {
          "name": "name",
          "type": "bytes32"
        },
        {
          "name": "description",
          "type": "bytes32"
        },
        {
          "name": "price",
          "type": "uint256"
        }
      ],
      "name": "newProduct",
      "outputs": [
        {
          "name": "success",
          "type": "bool"
        }
      ],
      "payable": false,
      "stateMutability": "nonpayable",
      "type": "function"
    },
    {
      "constant": false,
      "inputs": [
        {
          "name": "newOwnerId",
          "type": "address"
        }
      ],
      "name": "newOwner",
      "outputs": [],
      "payable": false,
      "stateMutability": "nonpayable",
      "type": "function"
    },
    {
      "constant": false,
      "inputs": [
        {
          "name": "id",
          "type": "uint256"
        },
        {
          "name": "bidPrice",
          "type": "uint256"
        }
      ],
      "name": "checkoutProduct",
      "outputs": [
        {
          "name": "success",
          "type": "bool"
        }
      ],
      "payable": false,
      "stateMutability": "nonpayable",
      "type": "function"
    },
    {
      "constant": false,
      "inputs": [
        {
          "name": "userBidLength",
          "type": "uint256"
        },
        {
          "name": "userAddress",
          "type": "address"
        },
        {
          "name": "id",
          "type": "uint256"
        },
        {
          "name": "bidPrice",
          "type": "uint256"
        }
      ],
      "name": "userDidBid",
      "outputs": [
        {
          "name": "success",
          "type": "bool"
        },
        {
          "name": "bidIndex",
          "type": "uint256"
        }
      ],
      "payable": false,
      "stateMutability": "nonpayable",
      "type": "function"
    },
    {
      "constant": false,
      "inputs": [
        {
          "name": "user",
          "type": "address"
        },
        {
          "name": "productId",
          "type": "uint256"
        }
      ],
      "name": "generateBidId",
      "outputs": [
        {
          "name": "bidId",
          "type": "bytes32"
        }
      ],
      "payable": false,
      "stateMutability": "nonpayable",
      "type": "function"
    },
    {
      "constant": false,
      "inputs": [
        {
          "name": "userAddress",
          "type": "address"
        }
      ],
      "name": "convert",
      "outputs": [
        {
          "name": "uAddress256",
          "type": "uint256"
        }
      ],
      "payable": false,
      "stateMutability": "nonpayable",
      "type": "function"
    },
    {
      "constant": false,
      "inputs": [
        {
          "name": "id",
          "type": "uint256"
        }
      ],
      "name": "deleteProduct",
      "outputs": [
        {
          "name": "success",
          "type": "bool"
        }
      ],
      "payable": false,
      "stateMutability": "nonpayable",
      "type": "function"
    },
    {
      "constant": true,
      "inputs": [],
      "name": "getStoreBalance",
      "outputs": [
        {
          "name": "_storeBalance",
          "type": "uint256"
        }
      ],
      "payable": false,
      "stateMutability": "view",
      "type": "function"
    },
    {
      "inputs": [],
      "payable": false,
      "stateMutability": "nonpayable",
      "type": "constructor"
    },
    {
      "anonymous": false,
      "inputs": [
        {
          "indexed": false,
          "name": "user",
          "type": "address"
        },
        {
          "indexed": false,
          "name": "id",
          "type": "uint256"
        },
        {
          "indexed": false,
          "name": "price",
          "type": "uint256"
        }
      ],
      "name": "BidPlaced",
      "type": "event"
    },
    {
      "anonymous": false,
      "inputs": [
        {
          "indexed": false,
          "name": "user",
          "type": "address"
        },
        {
          "indexed": false,
          "name": "id",
          "type": "uint256"
        },
        {
          "indexed": false,
          "name": "price",
          "type": "uint256"
        }
      ],
      "name": "BidRejected",
      "type": "event"
    },
    {
      "anonymous": false,
      "inputs": [
        {
          "indexed": false,
          "name": "id",
          "type": "uint256"
        }
      ],
      "name": "ProductCreated",
      "type": "event"
    },
    {
      "anonymous": false,
      "inputs": [
        {
          "indexed": false,
          "name": "id",
          "type": "uint256"
        }
      ],
      "name": "ProductCreationFailed",
      "type": "event"
    },
    {
      "anonymous": false,
      "inputs": [
        {
          "indexed": false,
          "name": "id",
          "type": "uint256"
        }
      ],
      "name": "DeleteProduct",
      "type": "event"
    },
    {
      "anonymous": false,
      "inputs": [
        {
          "indexed": false,
          "name": "id",
          "type": "uint256"
        }
      ],
      "name": "DeleteProductFailed",
      "type": "event"
    },
    {
      "anonymous": false,
      "inputs": [
        {
          "indexed": false,
          "name": "user",
          "type": "address"
        }
      ],
      "name": "UserCreated",
      "type": "event"
    },
    {
      "anonymous": false,
      "inputs": [
        {
          "indexed": false,
          "name": "user",
          "type": "address"
        }
      ],
      "name": "UserCreatedFailed",
      "type": "event"
    },
    {
      "anonymous": false,
      "inputs": [
        {
          "indexed": false,
          "name": "user",
          "type": "address"
        },
        {
          "indexed": false,
          "name": "id",
          "type": "uint256"
        },
        {
          "indexed": false,
          "name": "price",
          "type": "uint256"
        }
      ],
      "name": "CheckoutSuccess",
      "type": "event"
    },
    {
      "anonymous": false,
      "inputs": [
        {
          "indexed": false,
          "name": "user",
          "type": "address"
        },
        {
          "indexed": false,
          "name": "id",
          "type": "uint256"
        },
        {
          "indexed": false,
          "name": "price",
          "type": "uint256"
        }
      ],
      "name": "CheckoutFailed",
      "type": "event"
    },
    {
      "anonymous": false,
      "inputs": [
        {
          "indexed": false,
          "name": "sender",
          "type": "address"
        }
      ],
      "name": "StartupStore",
      "type": "event"
    }
  ],
  "bytecode": "0x6060604052341561000f57600080fd5b336000806101000a81548173ffffffffffffffffffffffffffffffffffffffff021916908373ffffffffffffffffffffffffffffffffffffffff160217905550336000806101000a81548173ffffffffffffffffffffffffffffffffffffffff021916908373ffffffffffffffffffffffffffffffffffffffff1602179055507f54686520416d617a696e67204353203531322053746f72650000000000000000600181600019169055507f51932deeeba980cb5f1c2818dace8d7e527646f5311588c897ed23bde254af6b33604051808273ffffffffffffffffffffffffffffffffffffffff1673ffffffffffffffffffffffffffffffffffffffff16815260200191505060405180910390a161148c8061012c6000396000f3006060604052600436106100d0576000357c0100000000000000000000000000000000000000000000000000000000900463ffffffff168063019c08f5146100d557806312065fe01461012a5780632d70c8d214610153578063521936e6146101c757806357c90de5146101f8578063607e60eb1461023c5780637789b00a1461026957806385952454146102c7578063cac48ca914610300578063d8ea515814610344578063d98534a9146103b7578063def2489b14610415578063ed90c7b714610462578063f05fae681461049d575b600080fd5b34156100e057600080fd5b6100e86104c6565b604051808273ffffffffffffffffffffffffffffffffffffffff1673ffffffffffffffffffffffffffffffffffffffff16815260200191505060405180910390f35b341561013557600080fd5b61013d6104eb565b6040518082815260200191505060405180910390f35b341561015e57600080fd5b6101ad600480803573ffffffffffffffffffffffffffffffffffffffff169060200190919080356000191690602001909190803560001916906020019091908035906020019091905050610535565b604051808215151515815260200191505060405180910390f35b34156101d257600080fd5b6101da6107cf565b60405180826000191660001916815260200191505060405180910390f35b341561020357600080fd5b61022260048080359060200190919080359060200190919050506107d5565b604051808215151515815260200191505060405180910390f35b341561024757600080fd5b61024f610a73565b604051808215151515815260200191505060405180910390f35b341561027457600080fd5b6102ad60048080359060200190919080356000191690602001909190803560001916906020019091908035906020019091905050610a7c565b604051808215151515815260200191505060405180910390f35b34156102d257600080fd5b6102fe600480803573ffffffffffffffffffffffffffffffffffffffff16906020019091905050610c26565b005b341561030b57600080fd5b61032a6004808035906020019091908035906020019091905050610d54565b604051808215151515815260200191505060405180910390f35b341561034f57600080fd5b610396600480803590602001909190803573ffffffffffffffffffffffffffffffffffffffff16906020019091908035906020019091908035906020019091905050610fbf565b60405180831515151581526020018281526020019250505060405180910390f35b34156103c257600080fd5b6103f7600480803573ffffffffffffffffffffffffffffffffffffffff169060200190919080359060200190919050506110a3565b60405180826000191660001916815260200191505060405180910390f35b341561042057600080fd5b61044c600480803573ffffffffffffffffffffffffffffffffffffffff169060200190919050506110d2565b6040518082815260200191505060405180910390f35b341561046d57600080fd5b61048360048080359060200190919050506110f2565b604051808215151515815260200191505060405180910390f35b34156104a857600080fd5b6104b0611241565b6040518082815260200191505060405180910390f35b6000809054906101000a900473ffffffffffffffffffffffffffffffffffffffff1681565b6000600360003373ffffffffffffffffffffffffffffffffffffffff1673ffffffffffffffffffffffffffffffffffffffff16815260200190815260200160002060030154905090565b600061053f6112a6565b6105476112ba565b6000809054906101000a900473ffffffffffffffffffffffffffffffffffffffff1673ffffffffffffffffffffffffffffffffffffffff163373ffffffffffffffffffffffffffffffffffffffff161415156105a257600080fd5b600073ffffffffffffffffffffffffffffffffffffffff168773ffffffffffffffffffffffffffffffffffffffff1614151561075d5760a0604051908101604052808873ffffffffffffffffffffffffffffffffffffffff168152602001876000191681526020018660001916815260200185815260200183815250905080600360008973ffffffffffffffffffffffffffffffffffffffff1673ffffffffffffffffffffffffffffffffffffffff16815260200190815260200160002060008201518160000160006101000a81548173ffffffffffffffffffffffffffffffffffffffff021916908373ffffffffffffffffffffffffffffffffffffffff16021790555060208201518160010190600019169055604082015181600201906000191690556060820151816003015560808201518160040190805190602001906106ed92919061130c565b509050507f0b0376a109cbb578b709f85f6a7befcdac3ac1ab251c99ede87f30c9572ac4d387604051808273ffffffffffffffffffffffffffffffffffffffff1673ffffffffffffffffffffffffffffffffffffffff16815260200191505060405180910390a1600192506107c5565b7ff941c7c5fcc45cf863d0b339ed4d59c752e7f57804ae4e37fe81dd9c9b14681987604051808273ffffffffffffffffffffffffffffffffffffffff1673ffffffffffffffffffffffffffffffffffffffff16815260200191505060405180910390a1600092505b5050949350505050565b60015481565b6000806000806107e361135f565b6000339450600360008673ffffffffffffffffffffffffffffffffffffffff1673ffffffffffffffffffffffffffffffffffffffff168152602001908152602001600020935060046000898152602001908152602001600020925086846003015410806108535750826003015487105b156108d4577fad3f08bcf990036015126ecde8b24bcaf0f023ece512a4aba4a96fadbaa0cf2d858989604051808473ffffffffffffffffffffffffffffffffffffffff1673ffffffffffffffffffffffffffffffffffffffff168152602001838152602001828152602001935050505060405180910390a160009550610a68565b6060604051908101604052808981526020018673ffffffffffffffffffffffffffffffffffffffff16815260200188815250915061091285896110a3565b905083600401805480600101828161092a9190611397565b91600052602060002090016000839091909150906000191690555082600501805480600101828161095b9190611397565b916000526020600020900160008390919091509060001916905550816005600083600019166000191681526020019081526020016000206000820151816000015560208201518160010160006101000a81548173ffffffffffffffffffffffffffffffffffffffff021916908373ffffffffffffffffffffffffffffffffffffffff160217905550604082015181600201559050507fdf8644c0a4c21ed214ce69f395675b3a5fcd1039083daea5058898de40ea3149858989604051808473ffffffffffffffffffffffffffffffffffffffff1673ffffffffffffffffffffffffffffffffffffffff168152602001838152602001828152602001935050505060405180910390a1600195505b505050505092915050565b60006001905090565b6000610a866112a6565b610a8e6113c3565b6000809054906101000a900473ffffffffffffffffffffffffffffffffffffffff1673ffffffffffffffffffffffffffffffffffffffff163373ffffffffffffffffffffffffffffffffffffffff16141515610ae957600080fd5b60c0604051908101604052808881526020018760001916815260200186600019168152602001858152602001858152602001838152509050600081606001511115610be0578060046000898152602001908152602001600020600082015181600001556020820151816001019060001916905560408201518160020190600019169055606082015181600301556080820151816004015560a0820151816005019080519060200190610b9c92919061130c565b509050507f8bfed7c0004768df129b4900300816f8e85b8633621048ae882252021aa699b2876040518082815260200191505060405180910390a160019250610c1c565b7f28004c9670944fac4f236b0c0b975343d6c26e51463ea994a413a72407cb45aa876040518082815260200191505060405180910390a1600092505b5050949350505050565b6000809054906101000a900473ffffffffffffffffffffffffffffffffffffffff1673ffffffffffffffffffffffffffffffffffffffff163373ffffffffffffffffffffffffffffffffffffffff16141515610c8157600080fd5b600073ffffffffffffffffffffffffffffffffffffffff168173ffffffffffffffffffffffffffffffffffffffff1614158015610d0b57506000809054906101000a900473ffffffffffffffffffffffffffffffffffffffff1673ffffffffffffffffffffffffffffffffffffffff168173ffffffffffffffffffffffffffffffffffffffff1614155b15610d5157806000806101000a81548173ffffffffffffffffffffffffffffffffffffffff021916908373ffffffffffffffffffffffffffffffffffffffff1602179055505b50565b600080600080600360003373ffffffffffffffffffffffffffffffffffffffff1673ffffffffffffffffffffffffffffffffffffffff1681526020019081526020016000209250848360030154101515610f1a57610ddf83600401805490508460000160009054906101000a900473ffffffffffffffffffffffffffffffffffffffff168888610fbf565b915091508115610f19578483600301600082825403925050819055508260040181815481101515610e0c57fe5b906000526020600020900160009055600460008781526020019081526020016000206000808201600090556001820160009055600282016000905560038201600090556004820160009055600582016000610e679190611406565b5050846002600082825401925050819055507fd1cd168e86fae1b34eb7c7df37d1c32b693690d8dbd4e09bf27620d40ff415a58360000160009054906101000a900473ffffffffffffffffffffffffffffffffffffffff168787604051808473ffffffffffffffffffffffffffffffffffffffff1673ffffffffffffffffffffffffffffffffffffffff168152602001838152602001828152602001935050505060405180910390a160019350610fb6565b5b7f84b87fefbb0e8f030b06d096d3b0dd315d3409519d950f81c9df8c817e6427918360000160009054906101000a900473ffffffffffffffffffffffffffffffffffffffff168787604051808473ffffffffffffffffffffffffffffffffffffffff1673ffffffffffffffffffffffffffffffffffffffff168152602001838152602001828152602001935050505060405180910390a1600093505b50505092915050565b60008060008060008060008094505b8a85101561106d57610fe08a8a6110a3565b93506005600085600019166000191681526020019081526020016000209250600560008560001916600019168152602001908152602001600020600001549150600560008560001916600019168152602001908152602001600020600201549050888214801561104f57508781145b156110605760018596509650611095565b8480600101955050610fce565b60007fffffffffffffffffffffffffffffffffffffffffffffffffffffffffffffffff965096505b505050505094509492505050565b600080826110b0856110d2565b0190508060405180828152602001915050604051809103902091505092915050565b60008173ffffffffffffffffffffffffffffffffffffffff169050919050565b6000806000809054906101000a900473ffffffffffffffffffffffffffffffffffffffff1673ffffffffffffffffffffffffffffffffffffffff163373ffffffffffffffffffffffffffffffffffffffff1614151561115057600080fd5b60046000848152602001908152602001600020905082816000015414156111ff576004600084815260200190815260200160002060008082016000905560018201600090556002820160009055600382016000905560048201600090556005820160006111bd9190611406565b50507f0e10ee3ece1ddd5966cebc571a843f6af8abd1fa7b2ef3d7279c44873b1e7bf8836040518082815260200191505060405180910390a16001915061123b565b7fa3d14c052667b638bed614b45524df6a4181f85d7837fee4723d35293755f425836040518082815260200191505060405180910390a1600091505b50919050565b60008060009054906101000a900473ffffffffffffffffffffffffffffffffffffffff1673ffffffffffffffffffffffffffffffffffffffff163373ffffffffffffffffffffffffffffffffffffffff1614151561129e57600080fd5b600254905090565b602060405190810160405280600081525090565b60a060405190810160405280600073ffffffffffffffffffffffffffffffffffffffff168152602001600080191681526020016000801916815260200160008152602001611306611427565b81525090565b82805482825590600052602060002090810192821561134e579160200282015b8281111561134d57825182906000191690559160200191906001019061132c565b5b50905061135b919061143b565b5090565b60606040519081016040528060008152602001600073ffffffffffffffffffffffffffffffffffffffff168152602001600081525090565b8154818355818115116113be578183600052602060002091820191016113bd919061143b565b5b505050565b60c0604051908101604052806000815260200160008019168152602001600080191681526020016000815260200160008152602001611400611427565b81525090565b5080546000825590600052602060002090810190611424919061143b565b50565b602060405190810160405280600081525090565b61145d91905b80821115611459576000816000905550600101611441565b5090565b905600a165627a7a723058206fe9bffeba5ec6d3d3c7fddb0e1a1b850fb06c64f305e838be880d89df01897d0029",
  "source": "pragma solidity ^0.4.17;\n\nimport \"./ProductOwner.sol\";\n\ncontract Store is ProductOwner {\n\tbytes32 public storeName;\n\tuint256 private storeBalance;\n\n\tmapping (address => User) users;\n\tmapping (uint256 => Product) products;\n\tmapping (bytes32 => Bid) bids;\n\n\tevent BidPlaced(address user, uint256 id, uint256 price);\n\tevent BidRejected(address user, uint256 id, uint256 price);\n\n\tevent ProductCreated(uint256 id);\n\tevent ProductCreationFailed(uint256 id);\n\n\tevent DeleteProduct(uint256 id);\n\tevent DeleteProductFailed(uint256 id);\n\n\tevent UserCreated(address user);\n\tevent UserCreatedFailed(address user);\n\n\tevent CheckoutSuccess(address user, uint256 id, uint256 price);\n\tevent CheckoutFailed(address user, uint256 id, uint256 price);\n\n\tevent StartupStore(address sender);\n\n\tstruct User {\n\t\taddress adr;\n\t\tbytes32 email;\n\t\tbytes32 name;\n\t\tuint256 balance;\n\t\tbytes32[] bids;\n\t}\n\n\tstruct Bid {\n\t\tuint256 productId;\n\t\taddress adr;\n\t\tuint256 price;\n\t}\n\n\tstruct Product {\n\t\tuint256 id;\n\t\tbytes32 name;\n\t\tbytes32 description;\n\t\tuint256 price;\n\t\tuint256 startingPrice;\n\t\tbytes32[] bids;\n\t}\n\n\tstruct Receipt {\n\t\tbytes productId;\n\t\tuint256 price;\n\t}\n\n\tfunction Store() public {\n\t\townerId = msg.sender;\n\t\tstoreName = \"The Amazing CS 512 Store\";\n\t\tStartupStore(msg.sender);\n\t}\n\n\tfunction newProduct(uint256 id, bytes32 name, bytes32 description, uint256 price)\n\t\t\t\t\t\tisOwner public returns (bool success) {\n\t\tbytes32[] memory emptyBids;\n\t\tProduct memory product = Product(id, name, description, price, price, emptyBids);\n\t\tif (product.price > 0) {\n\t\t\tproducts[id] = product;\n\t\t\tProductCreated(id);\n\t\t\treturn true;\n\t\t}\n\t\tProductCreationFailed(id);\n\t\treturn false;\n\t}\n\n\tfunction deleteProduct(uint256 id) isOwner public returns (bool success) {\n\t\tProduct storage product = products[id];\n\t\tif (product.id == id) {\n\t\t\tdelete products[id];\n\t\t\tDeleteProduct(id);\n\t\t\treturn true;\n\t\t}\n\t\tDeleteProductFailed(id);\n\t\treturn false;\n\t}\n\n\tfunction newUser(address _address, bytes32 _email, bytes32 _name, uint256 _balance)\n\t\t\t\t\tisOwner public returns (bool success) {\n\t\tif (_address != address(0)) {\n\t\t\tbytes32[] memory emptyBids;\n\t\t\tUser memory user = User({ adr: _address, email: _email,\n\t\t\t\t\t\t\t\t\tname: _name, balance: _balance,\n\t\t\t\t\t\t\t\t\tbids: emptyBids\n\t\t\t\t\t\t\t\t});\n\t\t\tusers[_address] = user;\n\t\t\tUserCreated(_address);\n\t\t\treturn true;\n\t\t}\n\t\tUserCreatedFailed(_address);\n\t\treturn false;\n\t}\n\n\tfunction placeBid(uint256 id, uint256 bidPrice) public returns (bool success) {\n\t\taddress userAddress = msg.sender;\n\t\tUser storage user = users[userAddress];\n\t\tProduct storage product = products[id];\n\n\t\tif (user.balance < bidPrice || bidPrice < product.price) {\n\t\t\tBidRejected(userAddress, id, bidPrice);\n\t\t\treturn false;\n\t\t}\n\n\t\tBid memory newBid = Bid(id, userAddress, bidPrice);\n\t\tbytes32 bidId = generateBidId(userAddress, id);\n\t\tuser.bids.push(bidId);\n\t\tproduct.bids.push(bidId);\n\t\tbids[bidId] = newBid;\n\t\tBidPlaced(userAddress, id, bidPrice);\n\t\treturn true;\n\t}\n\n\tfunction generateBidId(address user, uint256 productId) public returns (bytes32 bidId) {\n\t\tuint256 combined = convert(user) + productId;\n\t\treturn keccak256(combined);\n\t}\n\n\tfunction convert(address userAddress) public returns (uint256 uAddress256) {\n\t\treturn uint256(userAddress);\n\t}\n\n\tfunction checkoutProduct(uint256 id, uint256 bidPrice) public returns (bool success) {\n\t\tUser storage user = users[msg.sender];\n\t\tif (user.balance >= bidPrice) {\n\t\t\tvar (bidSuccess, bidIndex) = userDidBid(user.bids.length, user.adr, id, bidPrice);\n\t\t\tif (bidSuccess) {\n\t\t\t\tuser.balance -= bidPrice;\n\t\t\t\tdelete user.bids[bidIndex];\n\t\t\t\tdelete products[id];\n\t\t\t\tstoreBalance += bidPrice;\n\t\t\t\tCheckoutSuccess(user.adr, id, bidPrice);\n\t\t\t\treturn true;\n\t\t\t}\n\t\t}\n\t\tCheckoutFailed(user.adr, id, bidPrice);\n\t\treturn false;\n\t}\n\n\tfunction userDidBid(uint userBidLength, address userAddress, uint256 id, uint256 bidPrice) public returns (bool success, uint256 bidIndex) {\n\t\tfor (uint i = 0; i < userBidLength; i++) {\n\t\t\tbytes32 bidId = generateBidId(userAddress, id);\n\t\t\tBid userBid = bids[bidId];\n\t\t\tuint256 usersProductId = bids[bidId].productId;\n\t\t\tuint256 usersBidPrice  = bids[bidId].price;\n\t\t\tif (usersProductId == id && usersBidPrice == bidPrice) {\n\t\t\t\treturn (true, i);\n\t\t\t}\n\t\t}\n\t\treturn (false, uint256(-1));\n\t}\n\n\tfunction yo() constant public returns (bool hello) {\n\n\t\treturn true;\n\t}\n\n\tfunction getBalance() constant public returns (uint256 _balance) {\n\t\treturn users[msg.sender].balance;\n    }\n\n    function getStoreBalance() isOwner constant public returns (uint256 _storeBalance) {\n    \treturn storeBalance;\n    }\n\n}\n",
  "sourcePath": "/Users/gabrielchen/final-project/contracts/Store.sol",
  "compiler": {
    "name": "solc",
    "version": "0.4.18+commit.9cf6e910.Emscripten.clang"
  },
  "schemaVersion": "1.0.1",
  "updatedAt": "2017-12-16T04:57:41.868Z"
}